{
  "_format": "hh-sol-artifact-1",
  "contractName": "ToDoList",
  "sourceName": "contracts/ToDoList.sol",
  "abi": [
    {
      "inputs": [],
      "stateMutability": "nonpayable",
      "type": "constructor"
    },
    {
      "anonymous": false,
      "inputs": [
        {
          "indexed": true,
          "internalType": "address",
          "name": "account",
          "type": "address"
        },
        {
          "indexed": true,
          "internalType": "uint256",
          "name": "userId",
          "type": "uint256"
        },
        {
          "indexed": false,
          "internalType": "string",
          "name": "message",
          "type": "string"
        },
        {
          "indexed": false,
          "internalType": "bool",
          "name": "completed",
          "type": "bool"
        }
      ],
      "name": "ToDoEvent",
      "type": "event"
    },
    {
      "inputs": [],
      "name": "_idUser",
      "outputs": [
        {
          "internalType": "uint256",
          "name": "",
          "type": "uint256"
        }
      ],
      "stateMutability": "view",
      "type": "function"
    },
    {
      "inputs": [
        {
          "internalType": "string",
          "name": "_message",
          "type": "string"
        }
      ],
      "name": "createList",
      "outputs": [],
      "stateMutability": "nonpayable",
      "type": "function"
    },
    {
      "inputs": [
        {
          "internalType": "uint256",
          "name": "",
          "type": "uint256"
        }
      ],
      "name": "creators",
      "outputs": [
        {
          "internalType": "address",
          "name": "",
          "type": "address"
        }
      ],
      "stateMutability": "view",
      "type": "function"
    },
    {
      "inputs": [],
      "name": "getAddress",
      "outputs": [
        {
          "internalType": "address[]",
          "name": "",
          "type": "address[]"
        }
      ],
      "stateMutability": "view",
      "type": "function"
    },
    {
      "inputs": [
        {
          "internalType": "address",
          "name": "_address",
          "type": "address"
        }
      ],
      "name": "getCreatorData",
      "outputs": [
        {
          "internalType": "address",
          "name": "",
          "type": "address"
        },
        {
          "internalType": "uint256",
          "name": "",
          "type": "uint256"
        },
        {
          "internalType": "string",
          "name": "",
          "type": "string"
        },
        {
          "internalType": "bool",
          "name": "",
          "type": "bool"
        }
      ],
      "stateMutability": "view",
      "type": "function"
    },
    {
      "inputs": [],
      "name": "getMessage",
      "outputs": [
        {
          "internalType": "string[]",
          "name": "",
          "type": "string[]"
        }
      ],
      "stateMutability": "view",
      "type": "function"
    },
    {
      "inputs": [
        {
          "internalType": "uint256",
          "name": "",
          "type": "uint256"
        }
      ],
      "name": "message",
      "outputs": [
        {
          "internalType": "string",
          "name": "",
          "type": "string"
        }
      ],
      "stateMutability": "view",
      "type": "function"
    },
    {
      "inputs": [
        {
          "internalType": "uint256",
          "name": "",
          "type": "uint256"
        }
      ],
      "name": "messageId",
      "outputs": [
        {
          "internalType": "uint256",
          "name": "",
          "type": "uint256"
        }
      ],
      "stateMutability": "view",
      "type": "function"
    },
    {
      "inputs": [],
      "name": "ownerOfContract",
      "outputs": [
        {
          "internalType": "address",
          "name": "",
          "type": "address"
        }
      ],
      "stateMutability": "view",
      "type": "function"
    },
    {
      "inputs": [
        {
          "internalType": "address",
          "name": "",
          "type": "address"
        }
      ],
      "name": "toDoListApps",
      "outputs": [
        {
          "internalType": "address",
          "name": "account",
          "type": "address"
        },
        {
          "internalType": "uint256",
          "name": "userId",
          "type": "uint256"
        },
        {
          "internalType": "string",
          "name": "message",
          "type": "string"
        },
        {
          "internalType": "bool",
          "name": "completed",
          "type": "bool"
        }
      ],
      "stateMutability": "view",
      "type": "function"
    },
    {
      "inputs": [
        {
          "internalType": "address",
          "name": "_creator",
          "type": "address"
        }
      ],
      "name": "toggle",
      "outputs": [],
      "stateMutability": "nonpayable",
      "type": "function"
    }
  ],
  "bytecode": "0x608060405234801561001057600080fd5b5033600160006101000a81548173ffffffffffffffffffffffffffffffffffffffff021916908373ffffffffffffffffffffffffffffffffffffffff160217905550611119806100616000396000f3fe608060405234801561001057600080fd5b50600436106100a95760003560e01c806374310d081161007157806374310d081461016957806394432cc51461019c578063b8dcc68f146101ba578063cd53d08e146101d6578063ce6d41de14610206578063d1e8507b14610224576100a9565b80630d64e697146100ae57806321e47d46146100e157806338cc483114610111578063468229ae1461012f578063588f9acc1461014d575b600080fd5b6100c860048036038101906100c39190610ad6565b610254565b6040516100d89493929190610bdf565b60405180910390f35b6100fb60048036038101906100f69190610c57565b6103d9565b6040516101089190610c84565b60405180910390f35b6101196103fd565b6040516101269190610d5d565b60405180910390f35b61013761048b565b6040516101449190610d7f565b60405180910390f35b61016760048036038101906101629190610ad6565b6104b1565b005b610183600480360381019061017e9190610ad6565b610526565b6040516101939493929190610bdf565b60405180910390f35b6101a461060b565b6040516101b19190610c84565b60405180910390f35b6101d460048036038101906101cf9190610dff565b610611565b005b6101f060048036038101906101eb9190610c57565b6107ee565b6040516101fd9190610d7f565b60405180910390f35b61020e61082d565b60405161021b9190610f58565b60405180910390f35b61023e60048036038101906102399190610c57565b610906565b60405161024b9190610f7a565b60405180910390f35b6000806060600080600560008773ffffffffffffffffffffffffffffffffffffffff1673ffffffffffffffffffffffffffffffffffffffff1681526020019081526020016000206040518060800160405290816000820160009054906101000a900473ffffffffffffffffffffffffffffffffffffffff1673ffffffffffffffffffffffffffffffffffffffff1673ffffffffffffffffffffffffffffffffffffffff1681526020016001820154815260200160028201805461031690610fcb565b80601f016020809104026020016040519081016040528092919081815260200182805461034290610fcb565b801561038f5780601f106103645761010080835404028352916020019161038f565b820191906000526020600020905b81548152906001019060200180831161037257829003601f168201915b505050505081526020016003820160009054906101000a900460ff161515151581525050905080600001518160200151826040015183606001519450945094509450509193509193565b600481815481106103e957600080fd5b906000526020600020016000915090505481565b6060600280548060200260200160405190810160405280929190818152602001828054801561048157602002820191906000526020600020905b8160009054906101000a900473ffffffffffffffffffffffffffffffffffffffff1673ffffffffffffffffffffffffffffffffffffffff1681526020019060010190808311610437575b5050505050905090565b600160009054906101000a900473ffffffffffffffffffffffffffffffffffffffff1681565b6000600560008373ffffffffffffffffffffffffffffffffffffffff1673ffffffffffffffffffffffffffffffffffffffff16815260200190815260200160002090508060030160009054906101000a900460ff16158160030160006101000a81548160ff0219169083151502179055505050565b60056020528060005260406000206000915090508060000160009054906101000a900473ffffffffffffffffffffffffffffffffffffffff169080600101549080600201805461057590610fcb565b80601f01602080910402602001604051908101604052809291908181526020018280546105a190610fcb565b80156105ee5780601f106105c3576101008083540402835291602001916105ee565b820191906000526020600020905b8154815290600101906020018083116105d157829003601f168201915b5050505050908060030160009054906101000a900460ff16905084565b60005481565b6106196109b2565b6000805490506000600560003373ffffffffffffffffffffffffffffffffffffffff1673ffffffffffffffffffffffffffffffffffffffff1681526020019081526020016000209050338160000160006101000a81548173ffffffffffffffffffffffffffffffffffffffff021916908373ffffffffffffffffffffffffffffffffffffffff16021790555083838260020191906106b89291906109cb565b5060008160030160006101000a81548160ff0219169083151502179055508181600101819055506002339080600181540180825580915050600190039060005260206000200160009091909190916101000a81548173ffffffffffffffffffffffffffffffffffffffff021916908373ffffffffffffffffffffffffffffffffffffffff160217905550600384849091806001815401808255809150506001900390600052602060002001600090919290919290919290919250919061077f9291906109cb565b5080600101543373ffffffffffffffffffffffffffffffffffffffff167f97cb199a6fede85e8843b14a3b82273a76130b0e671f8803ce27aa90d52ee11486868560030160009054906101000a900460ff166040516107e093929190611039565b60405180910390a350505050565b600281815481106107fe57600080fd5b906000526020600020016000915054906101000a900473ffffffffffffffffffffffffffffffffffffffff1681565b60606003805480602002602001604051908101604052809291908181526020016000905b828210156108fd57838290600052602060002001805461087090610fcb565b80601f016020809104026020016040519081016040528092919081815260200182805461089c90610fcb565b80156108e95780601f106108be576101008083540402835291602001916108e9565b820191906000526020600020905b8154815290600101906020018083116108cc57829003601f168201915b505050505081526020019060010190610851565b50505050905090565b6003818154811061091657600080fd5b90600052602060002001600091509050805461093190610fcb565b80601f016020809104026020016040519081016040528092919081815260200182805461095d90610fcb565b80156109aa5780601f1061097f576101008083540402835291602001916109aa565b820191906000526020600020905b81548152906001019060200180831161098d57829003601f168201915b505050505081565b6000808154809291906109c49061109a565b9190505550565b8280546109d790610fcb565b90600052602060002090601f0160209004810192826109f95760008555610a40565b82601f10610a1257803560ff1916838001178555610a40565b82800160010185558215610a40579182015b82811115610a3f578235825591602001919060010190610a24565b5b509050610a4d9190610a51565b5090565b5b80821115610a6a576000816000905550600101610a52565b5090565b600080fd5b600080fd5b600073ffffffffffffffffffffffffffffffffffffffff82169050919050565b6000610aa382610a78565b9050919050565b610ab381610a98565b8114610abe57600080fd5b50565b600081359050610ad081610aaa565b92915050565b600060208284031215610aec57610aeb610a6e565b5b6000610afa84828501610ac1565b91505092915050565b610b0c81610a98565b82525050565b6000819050919050565b610b2581610b12565b82525050565b600081519050919050565b600082825260208201905092915050565b60005b83811015610b65578082015181840152602081019050610b4a565b83811115610b74576000848401525b50505050565b6000601f19601f8301169050919050565b6000610b9682610b2b565b610ba08185610b36565b9350610bb0818560208601610b47565b610bb981610b7a565b840191505092915050565b60008115159050919050565b610bd981610bc4565b82525050565b6000608082019050610bf46000830187610b03565b610c016020830186610b1c565b8181036040830152610c138185610b8b565b9050610c226060830184610bd0565b95945050505050565b610c3481610b12565b8114610c3f57600080fd5b50565b600081359050610c5181610c2b565b92915050565b600060208284031215610c6d57610c6c610a6e565b5b6000610c7b84828501610c42565b91505092915050565b6000602082019050610c996000830184610b1c565b92915050565b600081519050919050565b600082825260208201905092915050565b6000819050602082019050919050565b610cd481610a98565b82525050565b6000610ce68383610ccb565b60208301905092915050565b6000602082019050919050565b6000610d0a82610c9f565b610d148185610caa565b9350610d1f83610cbb565b8060005b83811015610d50578151610d378882610cda565b9750610d4283610cf2565b925050600181019050610d23565b5085935050505092915050565b60006020820190508181036000830152610d778184610cff565b905092915050565b6000602082019050610d946000830184610b03565b92915050565b600080fd5b600080fd5b600080fd5b60008083601f840112610dbf57610dbe610d9a565b5b8235905067ffffffffffffffff811115610ddc57610ddb610d9f565b5b602083019150836001820283011115610df857610df7610da4565b5b9250929050565b60008060208385031215610e1657610e15610a6e565b5b600083013567ffffffffffffffff811115610e3457610e33610a73565b5b610e4085828601610da9565b92509250509250929050565b600081519050919050565b600082825260208201905092915050565b6000819050602082019050919050565b600082825260208201905092915050565b6000610e9482610b2b565b610e9e8185610e78565b9350610eae818560208601610b47565b610eb781610b7a565b840191505092915050565b6000610ece8383610e89565b905092915050565b6000602082019050919050565b6000610eee82610e4c565b610ef88185610e57565b935083602082028501610f0a85610e68565b8060005b85811015610f465784840389528151610f278582610ec2565b9450610f3283610ed6565b925060208a01995050600181019050610f0e565b50829750879550505050505092915050565b60006020820190508181036000830152610f728184610ee3565b905092915050565b60006020820190508181036000830152610f948184610b8b565b905092915050565b7f4e487b7100000000000000000000000000000000000000000000000000000000600052602260045260246000fd5b60006002820490506001821680610fe357607f821691505b60208210811415610ff757610ff6610f9c565b5b50919050565b82818337600083830152505050565b60006110188385610b36565b9350611025838584610ffd565b61102e83610b7a565b840190509392505050565b6000604082019050818103600083015261105481858761100c565b90506110636020830184610bd0565b949350505050565b7f4e487b7100000000000000000000000000000000000000000000000000000000600052601160045260246000fd5b60006110a582610b12565b91507fffffffffffffffffffffffffffffffffffffffffffffffffffffffffffffffff8214156110d8576110d761106b565b5b60018201905091905056fea26469706673582212209aad09d2864ae385525b8eb2b19a31ec8dfc5617c3f1d88c594b2e9178a96d8d64736f6c63430008090033",
  "linkReferences": {},
  "deployedLinkReferences": {}
}